{
  "_format": "hh-sol-artifact-1",
  "contractName": "AiNft",
  "sourceName": "contracts/AiNft.sol",
  "abi": [
    {
      "anonymous": false,
      "inputs": [
        {
          "indexed": true,
          "internalType": "address",
          "name": "_owner",
          "type": "address"
        },
        {
          "indexed": true,
          "internalType": "address",
          "name": "_approved",
          "type": "address"
        },
        {
          "indexed": true,
          "internalType": "uint256",
          "name": "_tokenId",
          "type": "uint256"
        }
      ],
      "name": "Approval",
      "type": "event"
    },
    {
      "anonymous": false,
      "inputs": [
        {
          "indexed": true,
          "internalType": "address",
          "name": "_owner",
          "type": "address"
        },
        {
          "indexed": true,
          "internalType": "address",
          "name": "_operator",
          "type": "address"
        },
        {
          "indexed": false,
          "internalType": "bool",
          "name": "_approved",
          "type": "bool"
        }
      ],
      "name": "ApprovalForAll",
      "type": "event"
    },
    {
      "anonymous": false,
      "inputs": [
        {
          "indexed": false,
          "internalType": "address",
          "name": "_owner",
          "type": "address"
        },
        {
          "indexed": false,
          "internalType": "uint256",
          "name": "_tokenId",
          "type": "uint256"
        }
      ],
      "name": "Mint",
      "type": "event"
    },
    {
      "anonymous": false,
      "inputs": [
        {
          "indexed": true,
          "internalType": "address",
          "name": "previousOwner",
          "type": "address"
        },
        {
          "indexed": true,
          "internalType": "address",
          "name": "newOwner",
          "type": "address"
        }
      ],
      "name": "OwnershipTransferred",
      "type": "event"
    },
    {
      "anonymous": false,
      "inputs": [
        {
          "indexed": true,
          "internalType": "address",
          "name": "_from",
          "type": "address"
        },
        {
          "indexed": true,
          "internalType": "address",
          "name": "_to",
          "type": "address"
        },
        {
          "indexed": true,
          "internalType": "uint256",
          "name": "_tokenId",
          "type": "uint256"
        }
      ],
      "name": "Transfer",
      "type": "event"
    },
    {
      "inputs": [
        {
          "internalType": "address",
          "name": "_approved",
          "type": "address"
        },
        {
          "internalType": "uint256",
          "name": "_tokenId",
          "type": "uint256"
        }
      ],
      "name": "approve",
      "outputs": [],
      "stateMutability": "payable",
      "type": "function"
    },
    {
      "inputs": [
        {
          "internalType": "address",
          "name": "_owner",
          "type": "address"
        }
      ],
      "name": "balanceOf",
      "outputs": [
        {
          "internalType": "uint256",
          "name": "",
          "type": "uint256"
        }
      ],
      "stateMutability": "view",
      "type": "function"
    },
    {
      "inputs": [
        {
          "internalType": "uint256",
          "name": "_tokenId",
          "type": "uint256"
        }
      ],
      "name": "getApproved",
      "outputs": [
        {
          "internalType": "address",
          "name": "",
          "type": "address"
        }
      ],
      "stateMutability": "view",
      "type": "function"
    },
    {
      "inputs": [
        {
          "internalType": "address",
          "name": "_owner",
          "type": "address"
        }
      ],
      "name": "getOwnedNFTIds",
      "outputs": [
        {
          "internalType": "uint256[]",
          "name": "",
          "type": "uint256[]"
        }
      ],
      "stateMutability": "view",
      "type": "function"
    },
    {
      "inputs": [
        {
          "internalType": "address",
          "name": "_owner",
          "type": "address"
        },
        {
          "internalType": "address",
          "name": "_operator",
          "type": "address"
        }
      ],
      "name": "isApprovedForAll",
      "outputs": [
        {
          "internalType": "bool",
          "name": "",
          "type": "bool"
        }
      ],
      "stateMutability": "view",
      "type": "function"
    },
    {
      "inputs": [],
      "name": "mint",
      "outputs": [],
      "stateMutability": "payable",
      "type": "function"
    },
    {
      "inputs": [],
      "name": "nextID",
      "outputs": [
        {
          "internalType": "uint256",
          "name": "_value",
          "type": "uint256"
        }
      ],
      "stateMutability": "view",
      "type": "function"
    },
    {
      "inputs": [],
      "name": "owner",
      "outputs": [
        {
          "internalType": "address",
          "name": "",
          "type": "address"
        }
      ],
      "stateMutability": "view",
      "type": "function"
    },
    {
      "inputs": [
        {
          "internalType": "uint256",
          "name": "_tokenId",
          "type": "uint256"
        }
      ],
      "name": "ownerOf",
      "outputs": [
        {
          "internalType": "address",
          "name": "",
          "type": "address"
        }
      ],
      "stateMutability": "view",
      "type": "function"
    },
    {
      "inputs": [],
      "name": "renounceOwnership",
      "outputs": [],
      "stateMutability": "nonpayable",
      "type": "function"
    },
    {
      "inputs": [
        {
          "internalType": "address",
          "name": "_operator",
          "type": "address"
        },
        {
          "internalType": "bool",
          "name": "_approved",
          "type": "bool"
        }
      ],
      "name": "setApprovalForAll",
      "outputs": [],
      "stateMutability": "nonpayable",
      "type": "function"
    },
    {
      "inputs": [
        {
          "internalType": "address",
          "name": "_from",
          "type": "address"
        },
        {
          "internalType": "address",
          "name": "_to",
          "type": "address"
        },
        {
          "internalType": "uint256",
          "name": "_tokenId",
          "type": "uint256"
        }
      ],
      "name": "transferFrom",
      "outputs": [],
      "stateMutability": "payable",
      "type": "function"
    },
    {
      "inputs": [
        {
          "internalType": "address",
          "name": "newOwner",
          "type": "address"
        }
      ],
      "name": "transferOwnership",
      "outputs": [],
      "stateMutability": "nonpayable",
      "type": "function"
    },
    {
      "inputs": [],
      "name": "withdraw",
      "outputs": [],
      "stateMutability": "nonpayable",
      "type": "function"
    }
  ],
  "bytecode": "0x6080604052600060025534801561001557600080fd5b506100253361002a60201b60201c565b6100ee565b60008060009054906101000a900473ffffffffffffffffffffffffffffffffffffffff169050816000806101000a81548173ffffffffffffffffffffffffffffffffffffffff021916908373ffffffffffffffffffffffffffffffffffffffff1602179055508173ffffffffffffffffffffffffffffffffffffffff168173ffffffffffffffffffffffffffffffffffffffff167f8be0079c531659141344cd1fd0a4f28419497f9722a3daafe3b4186f6b6457e060405160405180910390a35050565b6115a6806100fd6000396000f3fe6080604052600436106100dd5760003560e01c806370a082311161007f578063a22cb46511610059578063a22cb4651461025f578063b248a59b14610288578063e985e9c5146102c5578063f2fde38b14610302576100dd565b806370a08231146101e0578063715018a61461021d5780638da5cb5b14610234576100dd565b80631e96917d116100bb5780631e96917d1461014557806323b872dd146101705780633ccfd60b1461018c5780636352211e146101a3576100dd565b8063081812fc146100e2578063095ea7b31461011f5780631249c58b1461013b575b600080fd5b3480156100ee57600080fd5b5061010960048036038101906101049190610f9a565b61032b565b6040516101169190611008565b60405180910390f35b6101396004803603810190610134919061104f565b610368565b005b610143610484565b005b34801561015157600080fd5b5061015a61058a565b604051610167919061109e565b60405180910390f35b61018a600480360381019061018591906110b9565b610596565b005b34801561019857600080fd5b506101a1610802565b005b3480156101af57600080fd5b506101ca60048036038101906101c59190610f9a565b610853565b6040516101d79190611008565b60405180910390f35b3480156101ec57600080fd5b506102076004803603810190610202919061110c565b610890565b604051610214919061109e565b60405180910390f35b34801561022957600080fd5b506102326108d9565b005b34801561024057600080fd5b506102496108ed565b6040516102569190611008565b60405180910390f35b34801561026b57600080fd5b5061028660048036038101906102819190611171565b610916565b005b34801561029457600080fd5b506102af60048036038101906102aa919061110c565b610b2f565b6040516102bc919061126f565b60405180910390f35b3480156102d157600080fd5b506102ec60048036038101906102e79190611291565b610c87565b6040516102f991906112e0565b60405180910390f35b34801561030e57600080fd5b506103296004803603810190610324919061110c565b610d8b565b005b60006005600083815260200190815260200160002060009054906101000a900473ffffffffffffffffffffffffffffffffffffffff169050919050565b6004600082815260200190815260200160002060009054906101000a900473ffffffffffffffffffffffffffffffffffffffff1673ffffffffffffffffffffffffffffffffffffffff163373ffffffffffffffffffffffffffffffffffffffff16146103d357600080fd5b816005600083815260200190815260200160002060006101000a81548173ffffffffffffffffffffffffffffffffffffffff021916908373ffffffffffffffffffffffffffffffffffffffff160217905550808273ffffffffffffffffffffffffffffffffffffffff163373ffffffffffffffffffffffffffffffffffffffff167f8c5be1e5ebec7d5bd14f71427d1e84f3dd0314c0f7b2291e5b200ac8c7c3b92560405160405180910390a45050565b600254341461049257600080fd5b6001600360003373ffffffffffffffffffffffffffffffffffffffff1673ffffffffffffffffffffffffffffffffffffffff16815260200190815260200160002060008282546104e2919061132a565b925050819055503360046000600160000154815260200190815260200160002060006101000a81548173ffffffffffffffffffffffffffffffffffffffff021916908373ffffffffffffffffffffffffffffffffffffffff1602179055507f0f6798a560793a54c3bcfe86a93cde1e73087d944c0ea20544137d41213968853360016000015460405161057692919061135e565b60405180910390a16105886001610e0e565b565b60018060000154905081565b8273ffffffffffffffffffffffffffffffffffffffff163373ffffffffffffffffffffffffffffffffffffffff16148061062e57503373ffffffffffffffffffffffffffffffffffffffff166005600083815260200190815260200160002060009054906101000a900473ffffffffffffffffffffffffffffffffffffffff1673ffffffffffffffffffffffffffffffffffffffff16145b61063757600080fd5b8273ffffffffffffffffffffffffffffffffffffffff166004600083815260200190815260200160002060009054906101000a900473ffffffffffffffffffffffffffffffffffffffff1673ffffffffffffffffffffffffffffffffffffffff16146106a257600080fd5b816004600083815260200190815260200160002060006101000a81548173ffffffffffffffffffffffffffffffffffffffff021916908373ffffffffffffffffffffffffffffffffffffffff1602179055506001600360008573ffffffffffffffffffffffffffffffffffffffff1673ffffffffffffffffffffffffffffffffffffffff16815260200190815260200160002060008282546107449190611387565b925050819055506001600360008473ffffffffffffffffffffffffffffffffffffffff1673ffffffffffffffffffffffffffffffffffffffff168152602001908152602001600020600082825461079b919061132a565b92505081905550808273ffffffffffffffffffffffffffffffffffffffff168473ffffffffffffffffffffffffffffffffffffffff167fddf252ad1be2c89b69c2b068fc378daa952ba7f163c4a11628f55a4df523b3ef60405160405180910390a4505050565b61080a610e24565b3373ffffffffffffffffffffffffffffffffffffffff166108fc479081150290604051600060405180830381858888f19350505050158015610850573d6000803e3d6000fd5b50565b60006004600083815260200190815260200160002060009054906101000a900473ffffffffffffffffffffffffffffffffffffffff169050919050565b6000600360008373ffffffffffffffffffffffffffffffffffffffff1673ffffffffffffffffffffffffffffffffffffffff168152602001908152602001600020549050919050565b6108e1610e24565b6108eb6000610e9b565b565b60008060009054906101000a900473ffffffffffffffffffffffffffffffffffffffff16905090565b600061092133610b2f565b905081156109f95760005b600360003373ffffffffffffffffffffffffffffffffffffffff1673ffffffffffffffffffffffffffffffffffffffff168152602001908152602001600020548110156109f357836005600084848151811061098b5761098a6113bb565b5b6020026020010151815260200190815260200160002060006101000a81548173ffffffffffffffffffffffffffffffffffffffff021916908373ffffffffffffffffffffffffffffffffffffffff1602179055506001816109ec919061132a565b905061092c565b50610ac5565b60005b600360003373ffffffffffffffffffffffffffffffffffffffff1673ffffffffffffffffffffffffffffffffffffffff16815260200190815260200160002054811015610ac3573360056000848481518110610a5b57610a5a6113bb565b5b6020026020010151815260200190815260200160002060006101000a81548173ffffffffffffffffffffffffffffffffffffffff021916908373ffffffffffffffffffffffffffffffffffffffff160217905550600181610abc919061132a565b90506109fc565b505b8273ffffffffffffffffffffffffffffffffffffffff163373ffffffffffffffffffffffffffffffffffffffff167f17307eab39ab6107e8899845ad3d59bd9653f200f220920489ca2b5937696c3184604051610b2291906112e0565b60405180910390a3505050565b60606000600360008473ffffffffffffffffffffffffffffffffffffffff1673ffffffffffffffffffffffffffffffffffffffff16815260200190815260200160002054905060008167ffffffffffffffff811115610b9157610b906113ea565b5b604051908082528060200260200182016040528015610bbf5781602001602082028036833780820191505090505b5090506000805b600160000154811015610c7b578573ffffffffffffffffffffffffffffffffffffffff166004600083815260200190815260200160002060009054906101000a900473ffffffffffffffffffffffffffffffffffffffff1673ffffffffffffffffffffffffffffffffffffffff1603610c685780838381518110610c4d57610c4c6113bb565b5b6020026020010181815250508180610c6490611419565b9250505b8080610c7390611419565b915050610bc6565b50819350505050919050565b600080610c9384610b2f565b905060005b600360008673ffffffffffffffffffffffffffffffffffffffff1673ffffffffffffffffffffffffffffffffffffffff16815260200190815260200160002054811015610d7e578373ffffffffffffffffffffffffffffffffffffffff1660056000848481518110610d0d57610d0c6113bb565b5b6020026020010151815260200190815260200160002060009054906101000a900473ffffffffffffffffffffffffffffffffffffffff1673ffffffffffffffffffffffffffffffffffffffff1614610d6a57600092505050610d85565b600181610d77919061132a565b9050610c98565b5060019150505b92915050565b610d93610e24565b600073ffffffffffffffffffffffffffffffffffffffff168173ffffffffffffffffffffffffffffffffffffffff1603610e02576040517f08c379a0000000000000000000000000000000000000000000000000000000008152600401610df9906114e4565b60405180910390fd5b610e0b81610e9b565b50565b6001816000016000828254019250508190555050565b3373ffffffffffffffffffffffffffffffffffffffff16610e436108ed565b73ffffffffffffffffffffffffffffffffffffffff1614610e99576040517f08c379a0000000000000000000000000000000000000000000000000000000008152600401610e9090611550565b60405180910390fd5b565b60008060009054906101000a900473ffffffffffffffffffffffffffffffffffffffff169050816000806101000a81548173ffffffffffffffffffffffffffffffffffffffff021916908373ffffffffffffffffffffffffffffffffffffffff1602179055508173ffffffffffffffffffffffffffffffffffffffff168173ffffffffffffffffffffffffffffffffffffffff167f8be0079c531659141344cd1fd0a4f28419497f9722a3daafe3b4186f6b6457e060405160405180910390a35050565b600080fd5b6000819050919050565b610f7781610f64565b8114610f8257600080fd5b50565b600081359050610f9481610f6e565b92915050565b600060208284031215610fb057610faf610f5f565b5b6000610fbe84828501610f85565b91505092915050565b600073ffffffffffffffffffffffffffffffffffffffff82169050919050565b6000610ff282610fc7565b9050919050565b61100281610fe7565b82525050565b600060208201905061101d6000830184610ff9565b92915050565b61102c81610fe7565b811461103757600080fd5b50565b60008135905061104981611023565b92915050565b6000806040838503121561106657611065610f5f565b5b60006110748582860161103a565b925050602061108585828601610f85565b9150509250929050565b61109881610f64565b82525050565b60006020820190506110b3600083018461108f565b92915050565b6000806000606084860312156110d2576110d1610f5f565b5b60006110e08682870161103a565b93505060206110f18682870161103a565b925050604061110286828701610f85565b9150509250925092565b60006020828403121561112257611121610f5f565b5b60006111308482850161103a565b91505092915050565b60008115159050919050565b61114e81611139565b811461115957600080fd5b50565b60008135905061116b81611145565b92915050565b6000806040838503121561118857611187610f5f565b5b60006111968582860161103a565b92505060206111a78582860161115c565b9150509250929050565b600081519050919050565b600082825260208201905092915050565b6000819050602082019050919050565b6111e681610f64565b82525050565b60006111f883836111dd565b60208301905092915050565b6000602082019050919050565b600061121c826111b1565b61122681856111bc565b9350611231836111cd565b8060005b8381101561126257815161124988826111ec565b975061125483611204565b925050600181019050611235565b5085935050505092915050565b600060208201905081810360008301526112898184611211565b905092915050565b600080604083850312156112a8576112a7610f5f565b5b60006112b68582860161103a565b92505060206112c78582860161103a565b9150509250929050565b6112da81611139565b82525050565b60006020820190506112f560008301846112d1565b92915050565b7f4e487b7100000000000000000000000000000000000000000000000000000000600052601160045260246000fd5b600061133582610f64565b915061134083610f64565b9250828201905080821115611358576113576112fb565b5b92915050565b60006040820190506113736000830185610ff9565b611380602083018461108f565b9392505050565b600061139282610f64565b915061139d83610f64565b92508282039050818111156113b5576113b46112fb565b5b92915050565b7f4e487b7100000000000000000000000000000000000000000000000000000000600052603260045260246000fd5b7f4e487b7100000000000000000000000000000000000000000000000000000000600052604160045260246000fd5b600061142482610f64565b91507fffffffffffffffffffffffffffffffffffffffffffffffffffffffffffffffff8203611456576114556112fb565b5b600182019050919050565b600082825260208201905092915050565b7f4f776e61626c653a206e6577206f776e657220697320746865207a65726f206160008201527f6464726573730000000000000000000000000000000000000000000000000000602082015250565b60006114ce602683611461565b91506114d982611472565b604082019050919050565b600060208201905081810360008301526114fd816114c1565b9050919050565b7f4f776e61626c653a2063616c6c6572206973206e6f7420746865206f776e6572600082015250565b600061153a602083611461565b915061154582611504565b602082019050919050565b600060208201905081810360008301526115698161152d565b905091905056fea2646970667358221220007253e70abef1cc5499dac388a85d364e54bd019bc3d25d71bd9f680b0ac87564736f6c63430008110033",
  "linkReferences": {},
  "deployedLinkReferences": {}
}